:020000020000FC
:0A0000000C94220D1FB60C941D0D88
:100040001FB60C941F0D02E002B9089508E027FDC9
:1000500006C03324199A33B80000000004C0199A6E
:10006000000000001998220F0A9589F708E037FD73
:1000700006C03324199A33B80000000004C0199A4E
:10008000000000001998330F0A9589F708E047FD32
:1000900006C03324199A33B80000000004C0199A2E
:1000A000000000001998440F0A9589F708951998DF
:1000B00001E4302E01E03A94F1F73A940A95D9F729
:1000C0000895DE2ECF2E889403E0D01A00E0C00AF7
:1000D0000895EE2DFF2D00E4002E219131914191E4
:1000E000F8940E9426000A94C1F70E945700FA3043
:1000F00008F406C0E03308F403C002E0702E08954F
:100100000895882703E0A02EED2DFC2D8894EC0F98
:10011000F21D808181FD2AC08827ED2DFC2D2192C2
:1001200021922192CF2EDE2E81922192219270FC7B
:100130000C94CB0D71FC0C94340EF8940E94690061
:10014000789404E6302E01E00F933F9200E3302EC6
:1001500006E03A94F1F73A940A95D9F73F900F9157
:100160003A9491F70A9581F7AA9471F6ED2DFC2D3A
:100170008894EC1BF209808181FD08958827ED2D7C
:10018000FC2D2192219221928894E619F209CF2E1A
:10019000DE2E81922192219270FC0C94CB0D71FC89
:1001A0000C94340EF8940E946900789404E6302E82
:1001B00001E00F933F9200E3302E06E03A94F1F70E
:1001C0003A940A95D9F73F900F913A9491F70A958E
:1001D00081F7CCCF762F66273327222371F0022FA9
:1001E00012D000000A95E1F7C29B02C0C29801C07C
:1001F000C29A621B730B98F7089521E004D0621B2A
:10020000730BE0F7089500C000C000D000D00000DC
:0202100008954F
:1060000060606060808080809999999972727266F0
:1060100066666C6C7272728080804C4C404039397C
:106020003948484040404C4C4C6060555566666667
:1060300066666060606080808080999999997272CC
:10604000726666666C6C7272728080804C4C4040E6
:1060500039393948484040404C4C4C606055556691
:06606000666666660000A2
:1014A00030303030404040404C4C4C4C3939333374
:1014B00039393C3C36363C3C404840404040404056
:0214C00000002A
:1015000080665540332A2020202A2A2A7960513CBF
:1015100030281E1E1E2828286C5548362A241B1BDE
:0A1520001B1B1B1B181818180000F5
:10156000191300003090008037FCFCCF03D00093AB
:101570000080089500D0000008952D3069F12A30D0
:10158000A9F10091008007FDFCCFF4DF209300C09B
:10159000089501E0E7CF02E0E5CF00E1E3CF04E109
:1015A000E1CF08E1DFCF0CE1DDCF0DE0DBCF0CE0D8
:1015B000D9CF0EE0D7CF0CE0D5CF05B7006C05BF73
:1015C00001E0D0DF06E0CEDF0CE0CCDF08E3CADFCD
:1015D0000895022F0068C6CF0091008007FDFCCF60
:1015E00000740068C7DF0093008008952F9320E403
:1015F000F0DF2F91089507B30F7807BB08B300679A
:1016000008BB0895E89416B31077209000011215D6
:1016100011F498940895109300012126989426FCC3
:101620001AC024FE089516FF0BC014FD04C02395B4
:1016300015FF225003C0239515FD2250989408955C
:1016400014FD04C0639515FF625003C0639515FD3A
:1016500062501894089516FD02C068940895089584
:10166000FF91EF91EE0FFF1FAF93BF93C895319697
:10167000002021F04AF0002D17D0F8CF3196F695D2
:10168000E795BF91AF91099400FA002DC895A02D60
:10169000A03610F0B2E001C0BB273196043879F0D3
:1016A000053881F015C0E2CF2F93FF93EF93E42D1F
:1016B000F52D202F0995EF91FF912F9108950C9111
:1016C000F3DFD4CF0D91002309F4D0CFEDDFFACFB3
:1016D0005F934F933F932F939F938F937F936F933A
:1016E0002D913D914D915D9106FD06C005FD0FC008
:1016F00004FD10C003FD19C06AE0702F7695777065
:10170000729580E0902F9295937093951AC062E045
:1017100094E003C060E194E000C0702F769577708C
:1017200009F478E0729580E00CC06AE0C895802DDD
:101730003196C895702D3196902F9595937093950D
:1017400000C0943081F0933051F0923021F0332773
:1017500016F427FD3FEF442716F437FD4FEF5527CA
:1017600016F447FD5FEF09D06F917F918F919F91A4
:101770002F913F914F915F9179CFCF92BF92AF92CE
:101780009F928F92BB18AA249924882486F4E89407
:1017900055236AF46894772309F070515095409569
:1017A000309520950FEF201B300B400B500B8823FA
:1017B00051F05595479537952795B794A7949794E9
:1017C00087948A95B1F77F9372957F700EE20F939D
:1017D00045D00C2D30D00F9300272017300740073D
:1017E000500729F07723A1F37A9591F707C0772363
:1017F00029F07A9519F000E257DFF9CF16F40DE2DF
:1018000053DF0F910E3211F04FDFFBCF7F917F70CE
:10181000772359F049DF282D392D4A2D5B2D11D022
:101820000C2D09D041DF7A95D1F78F909F90AF9022
:10183000BF90CF9008950A3010F4005D0895095AC2
:101840000895CC2400E2889420FDC60EC7945795D5
:101850004795379527950A95B1F70895CC2400E26E
:10186000221F331F441F551FCC1CC61A08F4C60E76
:101870000A95B1F7221F331F441F551F50954095FD
:1018800030952095089585DE0DEB402E0AE0502E10
:101890000E94300B484F4D454D4144452020204D7E
:1018A0004152494F0000A2DE0DEB402E0AE0502EBF
:1018B0000E94300B363A4E4558540000869B01C0BA
:1018C000FDCF67DE0DEB402E0AE0502E0E94300B5C
:1018D00053454C45435420534F554E443A0086DE01
:1018E00004E1302E01E00F933F9200E3302E06E03A
:1018F0003A94F1F73A940A95D9F73F900F913A94B8
:1019000091F70A9581F77EDE6F3F49F16A3028F53D
:101910000DEB402E0AE0502E0E94300B534F554ED7
:10192000443A94162020373A4E455854000004E1BA
:10193000302E01E00F933F9200E3302E06E03A9400
:10194000F1F73A940A95D9F73F900F913A9491F7AD
:101950000A9581F7879B09C0B4CF60E0C1CF69E0E9
:10196000BFCF21E010C022E00EC013DE0DEB402EF1
:101970000AE0502E0E94300B53454C454354204CF6
:10198000564C3A0033DE04E1302E01E00F933F92D3
:1019900000E3302E06E03A94F1F73A940A95D9F72D
:1019A0003F900F913A9491F70A9581F72BDE203002
:1019B000D1F22330B0F60DEB402E0AE0502E0E94FB
:1019C000300B4C564C3A941220202020363A504C82
:1019D0004159000004E1302E01E00F933F9200E3F3
:1019E000302E06E03A94F1F73A940A95D9F73F90F1
:1019F0000F913A9491F70A9581F7869B01C0B5CF74
:101A0000922EC7DD0DEB402E0AE0502E0E94300BC7
:101A1000484F4D454D4144452020204D4152494FAE
:101A20000000E4DD0DEB402E0AE0502E0E94300B4A
:101A30004C564C3A9412000008950C945D0D6F932F
:101A40002F930EC0F8940FEF0DBF00E10EBF0E9460
:101A5000DD0A0E94FB0A0CE3B02E0E94430C3CC13D
:101A6000BA9400E0B01609F496C06B2D0E94C90A22
:101A70000DEB402E0AE0502E0E94300B484F4D4592
:101A80004D4144452020204D4152494F00000E94C5
:101A9000F60A292D0DEB402E0AE0502E0E94300B45
:101AA0004C564C3A941220202020202020C016733F
:101AB00020002F916F911FBE189504E6302E01E093
:101AC0000F933F9200E3302E06E03A94F1F73A94F8
:101AD0000A95D9F73F900F913A9491F70A9581F7BB
:101AE000ED2DFC2D8894E70FF21D808181FD23C030
:101AF0008827DE2ECF2E8192219221928894E70EA4
:101B0000F21C0E94690004E6302E01E00F933F9220
:101B100000E3302E06E03A94F1F73A940A95D9F7AB
:101B20003F900F913A9491F70A9581F708C001E030
:101B3000A02E1FBE189501E0702E1FBE1895ED2D2A
:101B4000FC2D8894EC1BF209808181FDF0CF8894F4
:101B5000ED2DFC2D2192219221928894E619F20913
:101B6000DE2ECF2E8192219221920E94690004E6FE
:101B7000302E01E00F933F9200E3302E06E03A94BE
:101B8000F1F73A940A95D9F73F900F913A9491F76B
:101B90000A9581F7D4CF0E94C90A0DEB402E0AE0C6
:101BA000502E0E94300B20202047414D4520204FD1
:101BB000564552202020000008E8302E04E10F9303
:101BC0003F9200E3302E06E03A94F1F73A940A95FA
:101BD000D9F73F900F913A9491F70A9581F700E079
:101BE000E02E04E0F02EEE2DFF2D00E420E0219306
:101BF00020E0219320E021930A95C1F70E9469001B
:101C00002F910DB70F3F09F0FBCF002411242224A0
:101C10003324442455246624772488249924AA2430
:101C2000BB24CC24DD24EE24FF2400271127222707
:101C30003327442755276627772788279927AA27F8
:101C4000BB27CC27DD27EE27FF2700E001BB00E004
:101C500002B900E009BF00E000BF00E003BF00E000
:101C600007BF00E00FBFEECE0E94C90A0DEB402E69
:101C70000AE0502E0E94300B20594F552020434F30
:101C80004D504C455445442000000E94F60A292D31
:101C90000DEB402E0AE0502E0E94300B2020202019
:101CA0004C4556454C20941220202020000022272D
:101CB00008E8302E04E10F933F9200E3302E06E057
:101CC0003A94F1F73A940A95D9F73F900F913A94E4
:101CD00091F70A9581F783CF0E94230000E001BBB2
:101CE000BA9A01E009BF08E000BF05E003BF01E0C8
:101CF00007BF00E0202E03E0C02F06E0602E0CE1BD
:101D0000802EE0E0F4E0EE2EFF2E90FE01C0A3C690
:101D100001E026E021932CE1219320E021930A9514
:101D2000C1F72CE1219320E0219320E0219306E0EC
:101D300020E0219320E0219320E021930A95C1F730
:101D400001E026E021932CE1219320E021930A95E4
:101D5000C1F707E020E0219320E0219320E02193C8
:101D60000A95C1F701E026E021932CE1219320E0C0
:101D700021930A95C1F707E020E0219320E0219309
:101D800020E021930A95C1F702E026E021932CE19F
:101D9000219320E021930A95C1F703E020E02193ED
:101DA00020E0219320E021930A95C1F703E026E08B
:101DB00021932CE1219320E021930A95C1F702E0C1
:101DC00026E021932CE1219320E021930A95C1F78D
:101DD00003E020E0219320E0219320E021930A9565
:101DE000C1F703E026E021932CE1219320E0219329
:101DF0000A95C1F703E026E021932CE1219320E02E
:101E000021930A95C1F703E020E0219320E021937C
:101E100020E021930A95C1F702E026E021932CE10E
:101E2000219320E021930A95C1F703E026E0219356
:101E30002CE1219320E021930A95C1F703E020E0F3
:101E4000219320E0219320E021930A95C1F702E03D
:101E500026E021932CE1219320E021930A95C1F7FC
:101E600004E026E021932CE1219320E021930A95C0
:101E7000C1F703E020E0219320E0219320E02193AB
:101E80000A95C1F701E026E021932CE1219320E09F
:101E900021930A95C1F704E026E021932CE12193D8
:101EA00020E021930A95C1F703E020E0219320E090
:101EB000219320E021930A95C1F701E026E02193C8
:101EC0002CE1219320E021930A95C1F705E026E05B
:101ED00021932CE1219320E021930A95C1F703E09F
:101EE00020E0219320E0219320E021930A95C1F77F
:101EF00005E026E021932CE1219320E021930A952F
:101F0000C1F703E020E0219320E0219320E021931A
:101F10000A95C1F704E026E021932CE1219320E00B
:101F200021930A95C1F702E020E0219320E021935C
:101F300020E021930A95C1F702E026E021932CE1ED
:101F4000219320E021930A95C1F704E026E0219334
:101F50002CE1219320E021930A95C1F702E020E0D3
:101F6000219320E0219320E021930A95C1F702E01C
:101F700026E021932CE1219320E021930A95C1F7DB
:101F800003E026E021932CE1219320E021930A95A0
:101F9000C1F702E020E0219320E0219320E021938B
:101FA0000A95C1F703E026E021932CE1219320E07C
:101FB00021930A95C1F703E026E021932CE12193B8
:101FC00020E021930A95C1F702E020E0219320E070
:101FD000219320E021930A95C1F703E026E02193A5
:101FE0002CE1219320E021930A95C1F702E026E03D
:101FF00021932CE1219320E021930A95C1F702E07F
:1020000020E0219320E0219320E021930A95C1F75D
:1020100004E026E021932CE1219320E021930A950E
:10202000C1F702E026E021932CE1219320E02193E7
:102030000A95C1F702E020E0219320E0219320E0FF
:1020400021930A95C1F704E026E021932CE1219326
:1020500020E021930A95C1F701E026E021932CE1CD
:10206000219320E021930A95C1F707E020E0219316
:1020700020E0219320E021930A95C1F701E026E0BA
:1020800021932CE1219320E021930A95C1F707E0E9
:1020900020E0219320E0219320E021930A95C1F7CD
:1020A00003E026E021932CE1219320E021930A957F
:1020B000C1F702E020E0219320E0219320E021936A
:1020C0000A95C1F703E026E021932CE1219320E05B
:1020D00021930A95C1F703E026E021932CE1219397
:1020E00020E021930A95C1F702E020E0219320E04F
:1020F000219320E021930A95C1F703E026E0219384
:102100002CE1219320E021930A95C1F701E026E01C
:1021100021932CE1219320E021930A95C1F707E058
:1021200020E0219320E0219320E021930A95C1F73C
:1021300001E026E021932CE1219320E021930A95F0
:10214000C1F707E020E0219320E0219320E02193D4
:102150000A95C1F701E026E021932CE1219320E0CC
:1021600021930A95C1F701E020E0219320E021931B
:1021700020E021930A95C1F701E026E021932CE1AC
:10218000219320E021930A95C1F705E020E02193F7
:1021900020E0219320E021930A95C1F701E026E099
:1021A00021932CE1219320E021930A95C1F701E0CE
:1021B00020E0219320E0219320E021930A95C1F7AC
:1021C00001E026E021932CE1219320E021930A9560
:1021D000C1F705E020E0219320E0219320E0219346
:1021E0000A95C1F701E026E021932CE1219320E03C
:1021F00021930A95C1F704E020E0219320E0219388
:1022000020E021930A95C1F701E026E021932CE11B
:10221000219320E021930A95C1F702E020E0219369
:1022200020E0219320E021930A95C1F701E026E008
:1022300021932CE1219320E021930A95C1F704E03A
:1022400020E0219320E0219320E021930A95C1F71B
:1022500001E026E021932CE1219320E021930A95CF
:10226000C1F702E020E0219320E0219320E02193B8
:102270000A95C1F701E026E021932CE1219320E0AB
:1022800021930A95C1F702E020E0219320E02193F9
:1022900020E021930A95C1F701E026E021932CE18B
:1022A000219320E021930A95C1F704E020E02193D7
:1022B00020E0219320E021930A95C1F701E026E078
:1022C00021932CE1219320E021930A95C1F702E0AC
:1022D00020E0219320E0219320E021930A95C1F78B
:1022E00001E026E021932CE1219320E021930A953F
:1022F000C1F704E020E0219320E0219320E0219326
:102300000A95C1F707E026E021932CE1219320E014
:1023100021930A95C1F701E020E0219320E0219369
:1023200020E021930A95C1F702E026E021932CE1F9
:10233000219320E021930A95C1F703E020E0219347
:1023400020E0219320E021930A95C1F702E026E0E6
:1023500021932CE1219320E021930A95C1F701E01C
:1023600020E0219320E0219320E021930A95C1F7FA
:1023700001E026E021932CE1219320E021930A95AE
:10238000C1F705E020E0219320E0219320E0219394
:102390000A95C1F701E026E021932CE1219320E08A
:1023A00021930A95C1F701E020E0219320E02193D9
:1023B00020E021930A95C1F702E026E021932CE169
:1023C000219320E021930A95C1F703E020E02193B7
:1023D00020E0219320E021930A95C1F702E026E056
:1023E00021932CE1219320E021930A95C1F701E08C
:1023F00020E0219320E0219320E021930A95C1F76A
:1024000006E026E021932CE1219320E021930A9518
:10241000C1F702E020E0219320E0219320E0219306
:102420000A95C1F706E026E021932CE1219320E0F4
:1024300021930A95C1F702E020E0219320E0219347
:1024400020E021930A95C1F705E026E021932CE1D5
:10245000219320E021930A95C1F703E020E0219326
:1024600020E0219320E021930A95C1F705E026E0C2
:1024700021932CE1219320E021930A95C1F703E0F9
:1024800020E0219320E0219320E021930A95C1F7D9
:1024900004E026E021932CE1219320E021930A958A
:1024A000C1F704E020E0219320E0219320E0219374
:1024B0000A95C1F704E026E021932CE1219320E066
:1024C00021930A95C1F704E020E0219320E02193B5
:1024D00020E021930A95C1F703E026E021932CE147
:1024E000219320E021930A95C1F705E020E0219394
:1024F00020E0219320E021930A95C1F703E026E034
:1025000021932CE1219320E021930A95C1F705E066
:1025100020E0219320E0219320E021930A95C1F748
:1025200002E026E021932CE1219320E021930A95FB
:10253000C1F706E020E0219320E0219320E02193E1
:102540000A95C1F702E026E021932CE1219320E0D7
:1025500021930A95C1F706E020E0219320E0219322
:1025600020E021930A95C1F701E026E021932CE1B8
:10257000219320E021930A95C1F707E020E0219301
:1025800020E0219320E021930A95C1F701E026E0A5
:1025900021932CE1219320E021930A95C1F707E0D4
:1025A00020E0219320E0219320E021930A95C1F7B8
:1025B00001E026E021932CE1219320E021930A956C
:1025C000C1F702E020E0219320E0219320E0219355
:1025D0000A95C1F705E026E021932CE1219320E044
:1025E00021930A95C1F701E026E021932CE1219384
:1025F00020E021930A95C1F702E020E0219320E03A
:10260000219320E021930A95C1F701E026E0219370
:102610002CE1219320E021930A95C1F701E020E00D
:10262000219320E0219320E021930A95C1F701E056
:1026300026E021932CE1219320E021930A95C1F714
:1026400001E020E0219320E0219320E021930A95EE
:10265000C1F701E026E021932CE1219320E02193B2
:102660000A95C1F701E026E021932CE1219320E0B7
:1026700021930A95C1F702E020E0219320E0219305
:1026800020E021930A95C1F701E026E021932CE197
:10269000219320E021930A95C1F703E020E02193E4
:1026A00020E0219320E021930A95C1F701E026E084
:1026B00021932CE1219320E021930A95C1F701E0B9
:1026C00026E021932CE1219320E021930A95C1F784
:1026D00007E020E0219320E0219320E021930A9558
:1026E000C1F701E026E021932CE1219320E0219322
:1026F0000A95C1F702E020E0219320E0219320E039
:1027000021930A95C1F705E026E021932CE121935E
:1027100020E021930A95C1F701E026E021932CE106
:10272000219320E021930A95C1F704E020E0219352
:1027300020E0219320E021930A95C1F702E026E0F2
:1027400021932CE1219320E021930A95C1F701E028
:1027500020E0219320E0219320E021930A95C1F706
:1027600001E026E021932CE1219320E021930A95BA
:10277000C1F703E020E0219320E0219320E02193A2
:102780000A95C1F702E026E021932CE1219320E095
:1027900021930A95C1F702E020E0219320E02193E4
:1027A00020E021930A95C1F701E026E021932CE176
:1027B000219320E021930A95C1F702E020E02193C4
:1027C00020E0219320E021930A95C1F705E026E05F
:1027D00021932CE1219320E021930A95C1F701E098
:1027E00026E021932CE1219320E021930A95C1F763
:1027F00007E020E0219320E0219320E021930A9537
:10280000C1F701E026E021932CE1219320E0219300
:102810000A95C1F702E020E0219320E0219320E017
:1028200021930A95C1F705E026E021932CE121933D
:1028300020E021930A95C1F701E026E021932CE1E5
:10284000219320E021930A95C1F702E020E0219333
:1028500020E0219320E021930A95C1F701E026E0D2
:1028600021932CE1219320E021930A95C1F703E005
:1028700020E0219320E0219320E021930A95C1F7E5
:1028800001E026E021932CE1219320E021930A9599
:10289000C1F701E026E021932CE1219320E0219370
:1028A0000A95C1F703E020E0219320E0219320E086
:1028B00021930A95C1F703E026E021932CE12193AF
:1028C00020E021930A95C1F701E020E0219320E068
:1028D000219320E021930A95C1F701E026E021939E
:1028E0002CE1219320E021930A95C1F707E020E035
:1028F000219320E0219320E021930A95C1F701E084
:1029000026E021932CE1219320E021930A95C1F741
:1029100001E020E0219320E0219320E021930A951B
:10292000C1F701E026E021932CE1219320E02193DF
:102930000A95C1F701E020E0219320E0219320E0F7
:1029400021930A95C1F704E026E021932CE121931D
:1029500020E021930A95C1F701E026E021932CE1C4
:10296000219320E021930A95C1F707E020E021930D
:1029700020E0219320E021930A95C1F701E026E0B1
:1029800021932CE1219320E021930A95C1F707E0E0
:1029900020E0219320E0219320E021930A95C1F7C4
:1029A00001E026E021932CE1219320E021930A9578
:1029B000C1F707E020E0219320E0219320E021935C
:1029C0000A95C1F701E026E021932CE1219320E054
:1029D00021930A95C1F707E020E0219320E021939D
:1029E00020E021930A95C1F701E026E021932CE134
:1029F000219320E021930A95C1F707E020E021937D
:102A000020E0219320E021930A95C1F701E026E020
:102A100021932CE1219320E021930A95C1F707E04F
:102A200020E0219320E0219320E021930A95C1F733
:102A300001E026E021932CE1219320E021930A95E7
:102A4000C1F707E020E0219320E0219320E02193CB
:102A50000A95C1F7CAC501E026E021932CE1219334
:102A600020E021930A95C1F72CE1219320E02193E6
:102A700020E0219306E020E0219320E0219320E054
:102A800021930A95C1F701E026E021932CE12193DF
:102A900020E021930A95C1F707E020E0219320E090
:102AA000219320E021930A95C1F701E026E02193CC
:102AB0002CE1219320E021930A95C1F707E020E063
:102AC000219320E0219320E021930A95C1F701E0B2
:102AD00026E021932CE1219320E021930A95C1F770
:102AE00007E020E0219320E0219320E021930A9544
:102AF000C1F703E026E021932CE1219320E021930C
:102B00000A95C1F703E020E0219320E0219320E023
:102B100021930A95C1F702E026E021932CE121934D
:102B200020E021930A95C1F703E026E021932CE1F0
:102B3000219320E021930A95C1F703E020E021933F
:102B400020E0219320E021930A95C1F702E026E0DE
:102B500021932CE1219320E021930A95C1F701E014
:102B600026E021932CE1219320E021930A95C1F7DF
:102B700007E020E0219320E0219320E021930A95B3
:102B8000C1F701E026E021932CE1219320E021937D
:102B90000A95C1F707E020E0219320E0219320E08F
:102BA00021930A95C1F701E026E021932CE12193BE
:102BB00020E021930A95C1F707E020E0219320E06F
:102BC000219320E021930A95C1F702E026E02193AA
:102BD0002CE1219320E021930A95C1F706E020E043
:102BE000219320E0219320E021930A95C1F703E08F
:102BF00026E021932CE1219320E021930A95C1F74F
:102C000005E020E0219320E0219320E021930A9524
:102C1000C1F704E026E021932CE1219320E02193E9
:102C20000A95C1F704E020E0219320E0219320E001
:102C300021930A95C1F701E026E021932CE121932D
:102C400020E021930A95C1F707E020E0219320E0DE
:102C5000219320E021930A95C1F701E026E021931A
:102C60002CE1219320E021930A95C1F707E020E0B1
:102C7000219320E0219320E021930A95C1F701E000
:102C800026E021932CE1219320E021930A95C1F7BE
:102C900002E020E0219320E0219320E021930A9597
:102CA000C1F702E026E021932CE1219320E021935B
:102CB0000A95C1F703E020E0219320E0219320E072
:102CC00021930A95C1F701E026E021932CE121939D
:102CD00020E021930A95C1F702E020E0219320E053
:102CE000219320E021930A95C1F702E026E0219389
:102CF0002CE1219320E021930A95C1F703E020E025
:102D0000219320E0219320E021930A95C1F701E06F
:102D100026E021932CE1219320E021930A95C1F72D
:102D200007E020E0219320E0219320E021930A9501
:102D3000C1F701E026E021932CE1219320E02193CB
:102D40000A95C1F707E020E0219320E0219320E0DD
:102D500021930A95C1F701E026E021932CE121930C
:102D600020E021930A95C1F702E020E0219320E0C2
:102D7000219320E021930A95C1F705E026E02193F5
:102D80002CE1219320E021930A95C1F701E026E090
:102D900021932CE1219320E021930A95C1F702E0D1
:102DA00020E0219320E0219320E021930A95C1F7B0
:102DB00005E026E021932CE1219320E021930A9560
:102DC000C1F701E026E021932CE1219320E021933B
:102DD0000A95C1F707E020E0219320E0219320E04D
:102DE00021930A95C1F703E026E021932CE121937A
:102DF00020E021930A95C1F703E020E0219320E031
:102E0000219320E021930A95C1F702E026E0219367
:102E10002CE1219320E021930A95C1F701E026E0FF
:102E200021932CE1219320E021930A95C1F707E03B
:102E300020E0219320E0219320E021930A95C1F71F
:102E400001E026E021932CE1219320E021930A95D3
:102E5000C1F702E020E0219320E0219320E02193BC
:102E60000A95C1F705E026E021932CE1219320E0AB
:102E700021930A95C1F701E026E021932CE12193EB
:102E800020E021930A95C1F705E020E0219320E09E
:102E9000219320E021930A95C1F702E026E02193D7
:102EA0002CE1219320E021930A95C1F701E026E06F
:102EB00021932CE1219320E021930A95C1F706E0AC
:102EC00020E0219320E0219320E021930A95C1F78F
:102ED00001E026E021932CE1219320E021930A9543
:102EE000C1F701E026E021932CE1219320E021931A
:102EF0000A95C1F702E020E0219320E0219320E031
:102F000021930A95C1F701E026E021932CE121935A
:102F100020E021930A95C1F704E020E0219320E00E
:102F2000219320E021930A95C1F701E026E0219347
:102F30002CE1219320E021930A95C1F702E020E0E3
:102F4000219320E0219320E021930A95C1F701E02D
:102F500026E021932CE1219320E021930A95C1F7EB
:102F600004E020E0219320E0219320E021930A95C2
:102F7000C1F701E026E021932CE1219320E0219389
:102F80000A95C1F702E020E0219320E0219320E0A0
:102F900021930A95C1F701E026E021932CE12193CA
:102FA00020E021930A95C1F704E020E0219320E07E
:102FB000219320E021930A95C1F701E026E02193B7
:102FC0002CE1219320E021930A95C1F704E020E051
:102FD000219320E0219320E021930A95C1F701E09D
:102FE00026E021932CE1219320E021930A95C1F75B
:102FF00002E020E0219320E0219320E021930A9534
:10300000C1F701E026E021932CE1219320E02193F8
:103010000A95C1F704E020E0219320E0219320E00D
:1030200021930A95C1F701E026E021932CE1219339
:1030300020E021930A95C1F702E020E0219320E0EF
:10304000219320E021930A95C1F701E026E0219326
:103050002CE1219320E021930A95C1F704E020E0C0
:10306000219320E0219320E021930A95C1F701E00C
:1030700026E021932CE1219320E021930A95C1F7CA
:1030800002E020E0219320E0219320E021930A95A3
:10309000C1F701E026E021932CE1219320E0219368
:1030A0000A95C1F707E020E0219320E0219320E07A
:1030B00021930A95C1F701E026E021932CE12193A9
:1030C00020E021930A95C1F707E020E0219320E05A
:1030D000219320E021930A95C1F702E026E0219395
:1030E0002CE1219320E021930A95C1F706E020E02E
:1030F000219320E0219320E021930A95C1F703E07A
:1031000026E021932CE1219320E021930A95C1F739
:1031100005E020E0219320E0219320E021930A950F
:10312000C1F702E026E021932CE1219320E02193D6
:103130000A95C1F706E020E0219320E0219320E0EA
:1031400021930A95C1F701E026E021932CE1219318
:1031500020E021930A95C1F706E020E0219320E0CA
:10316000219320E021930A95C1F701E026E0219305
:103170002CE1219320E021930A95C1F701E026E09C
:1031800021932CE1219320E021930A95C1F705E0DA
:1031900020E0219320E0219320E021930A95C1F7BC
:1031A00002E026E021932CE1219320E021930A956F
:1031B000C1F701E026E021932CE1219320E0219347
:1031C0000A95C1F704E020E0219320E0219320E05C
:1031D00021930A95C1F703E026E021932CE1219386
:1031E00020E021930A95C1F701E026E021932CE12C
:1031F000219320E021930A95C1F705E020E0219377
:1032000020E0219320E021930A95C1F702E026E017
:1032100021932CE1219320E021930A95C1F701E04D
:1032200026E021932CE1219320E021930A95C1F718
:1032300006E020E0219320E0219320E021930A95ED
:10324000C1F701E026E021932CE1219320E02193B6
:103250000A95C1F702E026E021932CE1219320E0BA
:1032600021930A95C1F706E020E0219320E0219305
:1032700020E021930A95C1F703E026E021932CE199
:10328000219320E021930A95C1F705E020E02193E6
:1032900020E0219320E021930A95C1F704E026E085
:1032A00021932CE1219320E021930A95C1F704E0BA
:1032B00020E0219320E0219320E021930A95C1F79B
:1032C00005E026E021932CE1219320E021930A954B
:1032D000C1F703E020E0219320E0219320E0219337
:1032E0000A95C1F705E026E021932CE1219320E027
:1032F00021930A95C1F703E020E0219320E0219378
:1033000020E021930A95C1F705E026E021932CE106
:10331000219320E021930A95C1F703E020E0219357
:1033200020E0219320E021930A95C1F701E026E0F7
:1033300021932CE1219320E021930A95C1F707E026
:1033400020E0219320E0219320E021930A95C1F70A
:1033500001E026E021932CE1219320E021930A95BE
:10336000C1F707E020E0219320E0219320E02193A2
:103370000A95C1F701E026E021932CE1219320E09A
:1033800021930A95C1F707E020E0219320E02193E3
:1033900020E021930A95C1F704E026E021932CE177
:1033A000219320E021930A95C1F702E020E02193C8
:1033B00020E0219320E021930A95C1F702E026E066
:1033C00021932CE1219320E021930A95C1F701E09C
:1033D00026E021932CE1219320E021930A95C1F767
:1033E00007E020E0219320E0219320E021930A953B
:1033F000C1F703E026E021932CE1219320E0219303
:103400000A95C1F702E020E0219320E0219320E01B
:1034100021930A95C1F703E026E021932CE1219343
:1034200020E021930A95C1F701E026E021932CE1E9
:10343000219320E021930A95C1F707E020E0219332
:1034400020E0219320E021930A95C1F702E026E0D5
:1034500021932CE1219320E021930A95C1F702E00A
:1034600020E0219320E0219320E021930A95C1F7E9
:1034700004E026E021932CE1219320E021930A959A
:10348000C1F701E026E021932CE1219320E0219374
:103490000A95C1F707E020E0219320E0219320E086
:1034A00021930A95C1F701E026E021932CE12193B5
:1034B00020E021930A95C1F707E020E0219320E066
:1034C000219320E021930A95C1F701E026E02193A2
:1034D0002CE1219320E021930A95C1F707E020E039
:1034E000219320E0219320E021930A95C1F701E088
:1034F00026E021932CE1219320E021930A95C1F746
:1035000007E020E0219320E0219320E021930A9519
:10351000C1F701E026E021932CE1219320E02193E3
:103520000A95C1F707E020E0219320E0219320E0F5
:1035300021930A95C1F701E026E021932CE1219324
:1035400020E021930A95C1F707E020E0219320E0D5
:10355000219320E021930A95C1F701E026E0219311
:103560002CE1219320E021930A95C1F707E020E0A8
:10357000219320E0219320E021930A95C1F701E0F7
:1035800026E021932CE1219320E021930A95C1F7B5
:1035900007E020E0219320E0219320E021930A9589
:1035A000C1F701E026E021932CE1219320E0219353
:1035B0000A95C1F707E020E0219320E0219320E065
:1035C00021930A95C1F701E026E021932CE1219394
:1035D00020E021930A95C1F707E020E0219320E045
:1035E000219320E021930A95C1F778E1E0E0F4E02F
:1035F00000E4002E21913191419124FD0E9461004F
:10360000F8940E94260078940A94A1F70E9457002B
:10361000819B0E94810070FC0C94CB0D71FC0C947A
:04362000340EF6CF9F
:00000001FF
